:020000040000FA
:0600000002169F0209D662
:030013000209F8E7
:03002B0002144A72
:03003300020C209C
:03003B00020A4D69
:03004B0002132A73
:0300530002090B94
:03005B000211830C
:0300630002119EE9
:03006B00020BC6BF
:03007B00020BF77E
:1000830002096A010020FD0002012C0500000001A5
:100093006B1C771C00007D1C891C000000008F1C5A
:1000A300B31CB91CBF1C00000000000000000101CC
:1000B3000204081020408001FFFF090D0101040123
:1000C3000001000000000000000612FFFFFFFFFF19
:1000D300FF0101010400F811000000E8030000FF24
:1000E300FFA012E803000064006400B801A0BB0D88
:1000F30000A0BB0D00020200F8FF0705021E040169
:10010300051E02051E020A0A010108080310270240
:10011300803E0102FEFFE8030A050001FFFF020A19
:100123001401E0C503423F1A51123FF304B53F00E7
:1001330000803E05030101FF5137000000008736B0
:1001430000000000FF000000FF00C082C083120215
:10015300AA600814601214601C802BEA6005EB424D
:10016300808023E85280801EEA6005EB429080166F
:10017300E852908011EBC39420500BEA6005EB42E8
:10018300A08003E852A0020218C082C0831202AA10
:10019300600814602C146050807BE852F374016A89
:1001A300601274026A601574046A7003EB428FEB89
:1001B30042FD806153F7DFE8528F80F343F72080DD
:1001C300F6E852F474016A601274026A60157404EA
:1001D3006A7003EB42F6EB42FE803A53F7BFE852F4
:1001E300F680F343F74080F6EBC394205027E852A0
:1001F300F574016A601274026A601574046A70030C
:10020300EB42F7EB42FF800D53F77FE852F780F3A1
:1002130043F78080F6D083D08222C082C08312024B
:10022300AA600814602B14604E806CE852F352FDF0
:1002330074016A600F74026A600F74046A7058EB89
:10024300428F805353F7DF800343F720E8528F80B8
:1002530046E852F452FE74016A600F74026A600F3A
:1002630074046A7032EB42F6802D53F7BF80034368
:10027300F740E852F68020EBC39420501AE844E09C
:10028300F852F552FF74016A601074026A601374C5
:10029300046A7003EB42F702021853F77FE852F740
:1002A30080F543F78080F6E95407FC743B2CF58214
:1002B300E43415F583E0FBF4F8E9C4540F54032246
:1002C300C082C0831202AA600814601214601C80EA
:1002D3002DEA6005EB42FD8025E852FD8020EA60AF
:1002E30005EB42FE8018E852FE8013EBC3942050C6
:1002F3000DEA6005EB42FF800574E04852FF0202FD
:1003030018C082C0831202AA600814601514602208
:100313008034EA6005EB42808003E85280EB42FDC3
:100323008024EA6005EB42908003E85290EB42FEA2
:100333008014EBC39420500EEA6005EB42A08003C7
:10034300E852A0EB42FF020218E9C4540F540360C1
:1003530007146013146020227801E8F4FBEA60209C
:1003630014602114601522740F59C3940450047847
:100373000280E7780480E3780880DFE58C58600426
:10038300EB528C22E8428C221216AF601D1216BE6D
:100393007005191919801A121518701F121540C308
:1003A3007003E6673319191940071818182208084B
:1003B3000874FFF618F618F618F62212154060179F
:1003C300121764702192F012176D7019501720F0F4
:1003D30014080808090909E7F61819E7F61819E7D0
:1003E300F61819E7F62212176D60E6E869701F0820
:1003F30008E62480F608E436F618547FB47F0CE64A
:1004030054806007F6E418F618F622181822E9C695
:10041300CC08C6CD08C6CE08C6CFC0E0E8C0E0EA27
:10042300C0E0EBC0E009E9F809E7FA09E7FBE6F900
:1004330018E6F8C3EC98ED99EE9AEBC2E7F5F0EF06
:10044300C2E795F0500E600CEBCFFBEACEFAE9CD94
:10045300F9E8CCF8EAA2E7D2E7FAEB33FB13F5F0BD
:10046300EEA2E7D2E7FEEF33FFC5F013A2E730E6D3
:1004730001B313C5F0C3C0E0C0F07F00C39BFB60B2
:100483005E9418600F401D14601AD0E023F9D0E089
:10049300F802056C8AF0E9486003D2F0E4AFF0FAA1
:1004A300F9F8803BEB30E40D89F0EA6003D2F0E425
:1004B300AFF0F9CAF8EB30E30D88F0EF6002D2F049
:1004C300AFF0E4CAC9F8EB54076014FBC3EA13FAAC
:1004D300E913F9E813F8EF135002D2E0FFDBEDD094
:1004E300E0C0E030E739C3E49FFFF5F0EC98FC424D
:1004F300F0ED99FD42F0EE9AFE42F0D0E0F9D0E043
:10050300F8E5F0607AE923F9EE20E742D802806744
:10051300C3EF33FFEC33FCED33FDEE33FE80EAEC47
:1005230028FCED39FDEE3AFED0E023F9D0E0F840A7
:1005330002801BC3EE13FEED13FDEC13FCEF13500F
:1005430002D2E0FF08B800067F7F74FF802EEF33EE
:1005530050178CF020F00260100CBC000C0DBD0095
:10056300080EBE000408E860DFE933E813FFEE235A
:1005730013FE4F4D4C8008E95480FFE4FEFDFCEE72
:1005830033EF33F47004FCFD7E80D0E0FBD0E0FA5F
:10059300D0E0F8D0E0CFC618CEC618CDC618CCC66A
:1005A300F9221216AF7004181818221216BE700D15
:1005B30074FFF61819F61819F61819F622E754807D
:1005C30066F612176D700F12176470F014F608F6C2
:1005D30008F608F680D1121764700CF608F6087650
:1005E3008008E6447F80EC121543700C12151B60E3
:1005F300BFE65480F6E480BB12151B700519191968
:1006030080A5E869700C763F18768018F618F6E82E
:10061300F922E6CDC0E018ECC0E0E633CD33CDD30C
:1006230013F6E719FCE7191933CC33C3947F400E53
:10063300CD9D502408E65480F6E418F6800FF404A8
:100643003D14501408E6447FF6187680E418F61833
:10065300F6D0E0FCD0E0FD22CCD313CCFD18E4C6E9
:10066300CBC0E018E4C6CAC0E00808ED08C633E60C
:1006730013F618E433C675F003C3CA97CA09CB97B8
:10068300CB199C40047D08802EBD000302074E1643
:10069300B6FF050606081618C3CA33CACB33CB33D5
:1006A300CA27CA09CB37CB193CC37D08803E187DC6
:1006B3000820E75CC633C6CA33CACB33CB33DDF17C
:1006C300D5F0EB30E77BCA97CA09CB974ACB199C85
:1006D300406F4B7025E620E0218066187D08C3CA71
:1006E30097CA09CB97CB199CD3C633C6CA33CACB97
:1006F30033CB3350C9DDE7D5F0E1D3E4C636C608C2
:10070300C636C608C636C608C636C6181818803197
:10071300C3CA97CA09CB97CB199CB34097C633C6B4
:10072300CA33CACB33CB33DD34D5F02EC6A2E0C6F1
:1007330040C8CA27CA09CB37194A70BECB3CB4801C
:10074300B90808E63308E633601F181818D0E0FA32
:10075300D0E0FBD0E0FCD0E0FD22187D08CA27CA18
:1007630009CB37CB193CD3808013F618E4B67F113D
:10077300F618B6FF0EF618C60470D2080876808005
:10078300CAF618F618F680C5001216AF604F121697
:10079300BE6012E7548066F61215187011121764C2
:1007A300703B090909F4F618F618F618F622121523
:1007B30040701512176D08080860EAE6447FF618C2
:1007C300768018E4F618F62212176D601612176475
:1007D3007012E4F608F608F608E65480F6090909EB
:1007E30018181822EAC0E0EBC0E0ECC0E0EDC0E06E
:1007F300E687F0A4FBACF008E687F0A42CFCE43514
:10080300F0FA1809E687F0A42C4B60027401CA358C
:10081300F0FCE433FB09E687F0D2F7A42CCB35F0E8
:10082300FC1908E687F0A42BCC35F0FBE433FD0874
:1008330019E687F0D2E7A42C4ACB35F0CD3400FC7F
:1008430009E687F0D2E7A42DCC35F0FDE433FA09AD
:1008530018E687F0D2F7A42CCD35F0CA3400FC0893
:10086300E687F0D2E7D2F7A42ACC35F07A7E20E7E8
:100873000B0ACB33CBCD33CDCC33CC33CB3350146A
:100883007004ED30E00ED2F1E4CD3DCDCC3CCC3B59
:100893005005DA05C2F1EB547FC63308E63392F014
:1008A300FBE73309E733C39A502D2B70190C0D4C1A
:1008B3004D70151806E608C333700D20F10AA2F037
:1008C30013F6E418800B4024E4F630F00276801827
:1008D300F618F618F68024D33B14501074FFA2F0D8
:1008E30013F6187680E418F618F6800FA2F013F6C4
:1008F30018E63303F618ECF618EDF6D0E0FDD0E079
:10090300FCD0E0FBD0E0FA22C0E074F1120E1CA28E
:10091300AFE433F509D2AF85A708AFA1EF5508FEC1
:1009230074105E600612195F75A1EF74085E6008AB
:1009330012196575A1F78024EFA2E092F0E508A2F1
:10094300E082F05017906198E0F890049CE0C3981F
:10095300A2D265D0335002E8F075A1FEE509A2E00A
:1009630092AF7F02020E7BC0E074F2120E1CA2AFA4
:10097300E433FED2AF9061A4E0F8759B00E5915893
:10098300540860087591F71219AD8023E591585406
:100993001060087591EF1219B38014E591A2E092EB
:1009A300F0E8A2E082F05007E0C2E0F0121AFD90F6
:1009B30061A3E0F8E5E9585404600E121AD375E90F
:1009C300FB906193E0A2E640F2EEA2E092AF7F01DA
:1009D300020E7BC0E074F2120E1CA2AFE433FED20F
:1009E300AF9061A5E0F8E5BF585404600675BFFBFE
:1009F300121B1580D4C0E0C0D0E8C0E0E9C0E0C05D
:100A030082C083A8C1E8C0E0900409E0F874882894
:100A1300F582E43403F583D0E0F0900408E0F8A312
:100A2300E0687006E59590040BF0900409E004F08B
:100A3300C394804002E4F0A374C6F0D083D082D084
:100A4300E0F9D0E0F8D0D0D0E032C0E0C0D0E8C0C8
:100A5300E0E9C0E0C082C08390048CE0F8A3E068C2
:100A63007008539AFBA374018022C2E990048CE0BE
:100A7300F8740128F0740C28F582E43404F583E05B
:100A8300F5C190048CE0C394804002E4F080AC1282
:100A93000ADD30F039120B228034120ADD20F01403
:100AA30030E72B74FFFCFBFA747F8022E4FCFBFA33
:100AB3007480801AB48008BC00F2BB00EF800F5032
:100AC300EBF9E4C39AFAE49BFBE49CFCE499C6CCFF
:100AD30018C6CB18C6CA18C6F922E4C9C608CAC6BE
:100AE30008CBC6D3330308CCC63392F0C3947F40FC
:100AF3002E94184019C9B90704CACBCC225025C378
:100B030009CA33CACB33CBCC33CC33D9F422F46008
:100B13000DC9CCC313CB13CBCA13CAD9F6CC22E469
:100B2300FCFBFA2214FCFBFA22C3E498F8E499F9DB
:100B3300120B6D8026C3E49AFAE49BFBE920E7E9F4
:100B4300120B6DE498F8E499F922C3E498F8E49958
:100B5300F9120B6DE498F8E499F9C3E49AFAE49B6B
:100B6300FB22EB20E7CFE920E7E0B90010BB000848
:100B7300E88AF084F8AAF022E4FBC8FA22EB702298
:100B83007B10C833C8C933C9335007C39AC3DBF2D8
:100B930080069A50012ADBEAC833F4C8C933F4C982
:100BA300FA2275F008E4C833C8C933C933C99AC9EE
:100BB3009B5004C92AC93BD5F0ECFBC833F4C8E405
:100BC300C9FA22C0E074F2120E1CA2AFE433FED2C3
:100BD300AF90062DE05589600FE589FA7900121D63
:100BE3009D90062DE0F45289C2C5EEA2E092AF7F3C
:100BF30001020E7BC0E074F2120E1CA2AFE433FEBE
:100C0300D2AF90062EE0558A600FE58AFA79011279
:100C13001D9D90062EE0F4528AC2EB80CDC0E07495
:100C2300F2120E1CA2AFE433FED2AF90062FE055B2
:100C33008B600FE58BFA7902121D9D90062FE0F46D
:100C4300528BC2E880A4080808EAC0E0EBC0E08643
:100C5300F0E7A4FA180986F0E7A42AFA180986F03F
:100C6300E7A42AFA180986F0E7A42AFA1986F0E716
:100C7300A4FBE5F02AFA190886F0E7A42BFBE5F0BC
:100C83003AFA190886F0E7A42BFBE5F03AFA1818AC
:100C93000986F0E7A4C5F02BFBE43AFA1908E7C587
:100CA300F0C6A426F6E5F03BFBE43AFA1886F0E733
:100CB300A4F6E5F00826F6E43B08F6E43A08F6D095
:100CC300E0FBD0E0FA22080808E630E71112157CB1
:100CD300120CE1080808C64480C618181822181810
:100CE30018E9799EC608CAC608CBC608CCC6C37025
:100CF300207996CACBCC7019798ECBCC70137986B8
:100D0300CC700EF9802ACA33CACB33CBCC33CC3365
:100D13001930E7F2CCCBCA3350147004EA30E00D3B
:100D2300E4CA3ACACB3BCBCC3CCC500209C3E9134F
:100D3300C6CC182313C6CB18C6CA18C6F922E4CFEB
:100D4300C0E0E4CEC0E0E4CDC0E0E4CCC0E075F0A8
:100D530020E626F608E633F608E633F608E633F629
:100D6300181818EC33FCED33FDEE33FEEF33FFC3FD
:100D7300EC9709ED9709EE9709EF97191919400FA9
:100D8300FFEC97FC09ED97FD09EE97FE191906D5BF
:100D9300F0BFECF709EDF709EEF709EFF7191919A9
:100DA300D0E0FCD0E0FDD0E0FED0E0FF222518C566
:100DB30082C0E0E51934FFC583C0E0E518C395821E
:100DC30024F810AF08858319858218800885831954
:100DD300858218D2AFCEF0A3E520F0A37808E60809
:100DE300F0A3DEFAEFF0A3E58124FAF8E608F0A316
:100DF300E608F0A3E608F0A30808E608F0A3E6086F
:100E0300F0A315811581D0E0FED0E0F8158115819E
:100E13001581E8C0E0EEC0E022C0D02518C582C02D
:100E2300E0E51934FFC583C0E0E518C3958224F3D8
:100E330010AF0885831985821880088583198582F8
:100E430018D2AFC8F0A3E9F0A3EAF0A3EBF0A379BB
:100E530008E709F0A3D8FAECF0A3EDF0A3EEF0A3B2
:100E6300EFF0A3D0E0F0A3D0E0F0A3D0E0F0A3E54F
:100E730020F0A3E5F0F0A322851983851882E0C052
:100E8300E0A3E0F9A3E0FAA3E0FBA37808E0F60807
:100E9300A3DFFAE0FCA3E0FDA3E0FEA3E0FFA3E0F1
:100EA300C0E0A3E0C0E0A3E0F5D0A3E0F520A3E019
:100EB300A3F5F010AF088583198582188008858310
:100EC30019858218D2AFD082D083D0E0F8D0E03237
:100ED30012157F181818120D4112164E19191922DE
:100EE30012164E191919080808E618181820E7E011
:100EF300120D4112157F18181822090909E719194B
:100F03001920E7DC080808E618181820E703020D83
:100F13004112157F181818120D4112157F18181851
:100F230012164E1919192212174FB90003020F692D
:100F3300E490033178DF79128002F0A3D8FCD9FA68
:100F43007A0F7B1590008678C879018015E493A306
:100F5300AD82AE838A828B83F0A3AA82AB838D8218
:100F63008E83D8E9D9E77582A47583A87406121312
:100F7300A775826175833274001213A7FF75F01091
:100F83008E1A8F1B85821F85831E85188285198380
:100F9300E0CEA3E0CF851F82851E83EBC9EAC8EDAF
:100FA300CBECCAC3E833C8E933C9EA33CAEB33CB62
:100FB300C3EA9EF51DEB9FF51CB35004AB1CAA1DA1
:100FC300EC33CCED33CDD5F0DAAE1AAF1B221216CB
:100FD300AF601C1216BE601712176D7007121764EC
:100FE3007001D322C0D01217647006D0D0B322C3CD
:100FF3002233D0D0501430E0F6C3E7960809E796C1
:101003000809E7960809E796B32220E0D5E6970892
:1010130009E6970809E6970809E697B3221216AF7F
:10102300601B1216BE601612176D700712176460EC
:101033000CB322C0D01217647005D0D022C3223360
:10104300D0D0501330E0EBC3E7960809E7960809C0
:10105300E7960809E7962220E0E4E6970809E69771
:101063000809E6970809E69722D083D082ECC0E00E
:10107300EDC0E0E493A3FCE493A3FDED4C600D12FB
:101083001144EC24FFFCED34FFFD80EFE493A3FC5B
:10109300E493A3FDED4C600D12124AEC24FFFCED2A
:1010A30034FFFD80EFD0E0FDD0E0FCE493A3C0E08B
:1010B300E493C0E022851983851882E0A3FEE0A3B0
:1010C300F5207808E0A3F608DFFAE0A3FFE0A3C069
:1010D300E0E0A3C0E0E0A3C0E0E0A3C0E0E0A3C081
:1010E300E010AF08858218858319800885821885EA
:1010F3008319D2AFD083D0820213ADD083D082E9DB
:10110300C0E0E493A3C386F0C5F095F0F908E49337
:10111300A386F0C5F095F0700BE493A3C399400543
:10112300E9048002A3E475F002A42582F582E5F0C8
:101133003583F583D0E0F9E493A3C0E0E493C0E002
:1011430022C0E0C3E49396087401939618400FE419
:101153009366700808740193661870007019A3A34E
:10116300C3E49396087401939618A3A3400DD0E0AB
:10117300D0E0D0E00210A8A3A3A3A3A3A3D0E022AE
:10118300C0E074F2120E1CC2D99015591211B64068
:1011930005E0F91220857F01020E7BC0E074F21294
:1011A3000E1CC2DC90155B1211B64005E0F912204B
:1011B3008580E3E0C39400A2D265D0332274048017
:1011C3000474028000CCC0E0EDC0E0E518C39CCC01
:1011D300AD1950011D10AF068C188D1980068C189F
:1011E3008D19D2AF121309D0E0FDD0E0FC227402B6
:1011F3008000CCC0E0EDC0E0E518C39CCCAD195035
:10120300011D10AF068C188D1980068C188D19D20C
:10121300AF1212C5D0E0FDD0E0FC221216AF60255C
:101223001216BE602012176D7003021764080808B7
:10123300E76670101819E766700A1819E7667004F4
:101243001819E76622F422C0E0C0F088F0E4936640
:1012530070080874019366187000A8F0A3A3700BBC
:10126300D0F0D0E0D0E0D0E00210A8A3A3D0F0D01B
:10127300E022D083D082CCC0E0E493A360061213B3
:10128300881470FAE493A360061214AD1470FAD0B4
:10129300E0FCE493A3C0E0E493C0E022C008C3E011
:1012A30096F50808A3E096420808A3E096420808CA
:1012B300A3E0964208A2D265D033E5087001D3D0EB
:1012C3000822CAC0E0E493A3C582CCC582C583CDFE
:1012D300C583F0A3C582CCC582C583CDC583DAE5BA
:1012E300D0E0CA22A2E792D65002F40430F7066394
:1012F300F0FF05F0B3400384800384F40430D60583
:1013030063F0FF05F022CAC0E0E0A3C582CCC5822A
:10131300C583CDC583F0A3C582CCC582C583CDC5A6
:1013230083DAE6D0E0CA22C0E0C0D0C082C08375B1
:10133300AF0090066BE02401F0A3E03400F0D0830B
:10134300D082D0D0D0E03270090808082260161885
:101353001818C6C333C608C633C608C633C608C67C
:1013630033C6D5E0EA22C008C3E096F50808A3E037
:1013730096420808A3E096420808A3E09645087041
:1013830001D3D00822C0E0E493A3D39C5010E4938C
:10139300A3C39C400AD0E0D0E0D0E0021292A3A302
:1013A300A3D0E022C09FF59FE473D09F22D083D0C7
:1013B30082C09FE493C0E0740193C0E0740293F58C
:1013C3009F222518F58210AF08F518400C151980D7
:1013D30008F51840021519D2AF8519832200C0D031
:1013E300251810AF08F518500C05198008F518508A
:1013F300020519D2AFD0D0227404800A7403800688
:10140300740280027401C0E0F4041213C5D0E01228
:1014130016FA226017080808C6A2E713C618C613EF
:10142300C618C613C618C613C6D5E0E922BB010207
:10143300E722C082C08389828A83BB0003E08002E3
:10144300E493D083D08222C0E0C0D0E8C0E0A8A853
:10145300D2AFC2C7E8A2E792AFD0E0F8D0D0D0E0D5
:10146300326016080808C6C313C618C613C618C6C2
:1014730013C618C613C6D5E0EA22C3E0C696F6081B
:10148300A3E0C696F608A3E0C696F608A3E0C696C0
:10149300F6222518F8E43519F9222518FAE4351946
:1014A300FB222518FCE43519FD22C0E0E493A36C6C
:1014B3007009D0E0D0E0D0E0021292A3A3D0E022E2
:1014C300251810AF08F518400C15198008F51840B9
:1014D300021519D2AF22C3E09608A3E09608A3E051
:1014E3009608A3E096A2D265D03322E7667010086F
:1014F30009E766700A0809E76670040809E76622C7
:10150300E066701008A3E066700A08A3E066700442
:1015130008A3E06622181818E60846087009E626AC
:10152300087005E633F4220822C3E4939608740195
:1015330093960874029396087403939622191919C3
:10154300E70947097009E727097005E733F422091A
:1015530022C3E096F008A3E096F008A3E096F00813
:10156300A3E096F022C3E697F60809E697F6080982
:10157300E697F60809E697F622181818E4C396F6D4
:1015830008E496F608E496F608E496F622E026F6D2
:1015930008A3E036F608A3E036F608A3E036F62201
:1015A300E627F60809E637F60809E637F60809E6F6
:1015B30037F622E493F608740193F608740293F65F
:1015C30008740393F622E657F60809E657F6080966
:1015D300E657F60809E657F622E056F008A3E05668
:1015E300F008A3E056F008A3E056F022E647F60819
:1015F30009E647F60809E647F60809E647F62270C2
:101603000422600D18C6C333C608C633C6D5E0F43A
:101613001822E667F60809E667F60809E667F6089A
:1016230009E667F622E026F008A3E036F008A3E017
:1016330036F008A3E036F022E056F608A3E056F6AB
:1016430008A3E056F608A3E056F622E4C397F70989
:10165300E497F709E497F709E497F722600D08C6C2
:10166300A2E713C618C613C6D5E0F322C6F4C6080C
:10167300C6F4C608C6F4C608C6F4C622C3E0960874
:10168300A3E09608A3E09608A3E09622C3E7960892
:1016930009E7960809E7960809E7962275D00075C9
:1016A300813F75183175190300020F2AE6084608B1
:1016B300C3134608336002E633F422E7094709C33C
:1016C300134709336002E733F422600C08C6C313DF
:1016D300C618C613C6D5E0F422E6F008A3E6F00860
:1016E300A3E6F008A3E6F022E0F608A3E0F608A3D9
:1016F300E0F608A3E0F622CAC0E0E6F0A308DAFAAF
:10170300D0E0FA22E0FCA3E0FDA3E0FEA3E0FF2289
:10171300EAF0A3EBF0A3ECF0A3EDF022E0FAA3E0F0
:10172300FBA3E0FCA3E0FD22E8F0A3E9F0A3EAF0C9
:10173300A3EBF022ECF0A3EDF0A3EEF0A3EFF02285
:10174300E0F8A3E0F9A3E0FAA3E0FB22E5C754F82D
:101753004401F5C77901222518F582E43519F5838B
:1017630022E72719471947194722E626184618463C
:10177300184622C2AF75D69F020000221213B00F83
:10178300D4041213B0C5D4041213B0C4D504121375
:10179300B0F7D6041213B04AAC061213B0BDAC06B0
:1017A3001213B043AD061213B02DFF031213B03E54
:1017B300FF031213B0DCFF031213B0E7FF0312138E
:1017C300B0F37F001213B0B6BF061213B0B9BB0655
:1017D3001213B0C9BB061213B0DEBB061213B0441A
:1017E300BC061213B076B7061213B0F9B70612137C
:1017F300B05FB8061213B0A6A6061213B0E1A60690
:101803001213B03CA7061213B094A7061213B01A12
:10181300A8061213B056A8061213B0C9BF061213B6
:10182300B0D9BF061213B04ABF061213B0E49F0625
:101833001213B02EA0061213B0C4A0061213B04A9E
:10184300A1061213B07BA1061213B093A1061213C3
:10185300B007A2061213B01DA2061213B030A206DF
:101863001213B03AA2061213B00AC2041213B0BB89
:10187300C6041213B0D2C7041213B0EEC704121376
:10188300B071C8041213B038CB041213B028ED049E
:101893001213B08BED041213B03BEE041213B00617
:1018A300EF041213B05BF0041213B03BF1041213F4
:1018B300B038F2041213B010F4041213B037F40466
:1018C3001213B0C3F4041213B01DF6041213B09331
:1018D300F6041213B0D1F6041213B0E3F604121394
:1018E300B04EF7041213B01CF9041213B058FA04E3
:1018F3001213B01DFC041213B084D1051213B0B03F
:10190300D1051213B021D4051213B061D4051213FB
:10191300B0A1D4051213B0B5D4051213B0CED405BB
:101923001213B0BFD5051213B064D6051213B078E5
:10193300D6051213B001B1061213B025B106121366
:10194300B03EB1061213B070B1061213B0A0B106C7
:101953001213B0CDB1061213B02FB2061213B03E5C
:10196300B2061213B048B2061213B055B2061213E0
:10197300B04E9D061213B06E9D061213B0AD9D06B8
:101983001213B0C89D061213B0E79D061213B04D93
:101993009E061213B0569E061213B0B39E06121380
:1019A300B0D79E061213B0989F061213B0A59F06D8
:1019B3001213B0B69F061213B0D5BC061213B0EDC6
:1019C300BC061213B019BD061213B053EA05121365
:1019D300B0ADEB051213B0BBEB051213B0CEEB05A4
:1019E3001213B0E3EB051213B0F8EB051213B00BAF
:1019F300EC051213B07FEC051213B0E4EC051213DF
:101A0300B086ED051213B04AEE051213B05AEE0577
:101A13001213B069EE051213B020BB061213B044C3
:101A2300BB061213B06CBB061213B094BB061213A1
:101A3300B083A4061213B0AAA4061213B0C8A40656
:101A43001213B03BA5061213B07B9A061213B0947F
:101A53009A061213B0A09A061213B0B49A06121380
:101A6300B0D29A061213B0DC9A061213B0E69A06A5
:101A73001213B0F99A061213B07F9B061213B0F437
:101A83009B061213B0239C061213B0719C0612130B
:101A9300B0C09C061213B0DB9C061213B0E59C0683
:101AA3001213B0F69C061213B0399D061213B0350B
:101AB300BE061213B0A293051213B0CC93051213F2
:101AC300B0E993051213B0FC93051213B0129405F9
:101AD3001213B07094051213B0A894051213B09C9E
:101AE30098051213B0E199051213B0149A05121355
:101AF300B0779A051213B0E19B051213B0099C0548
:101B03001213B01E9C051213B02E9C051213B07253
:101B13009C051213B0CD9C051213B0DD9C05121366
:101B2300B0CBFE041213B0E5FE041213B00DFF0494
:101B33001213B026FF041213B04AFF041213B06845
:101B4300FF041213B07FFF041213B0ADFF0412138E
:101B5300B0C8FF041213B080BE061213B0A68706E6
:101B63001213B0B687061213B0BD88061213B0F174
:101B730088061213B01389061213B036890612139E
:101B8300B05489061213B08E89061213B0F3890676
:101B93001213B0358A061213B0748A061213B0A555
:101BA3008A061213B0DC8A061213B0EDF603121381
:101BB300B0E9F7031213B007F8031213B02EF803BA
:101BC3001213B0F3F9031213B012FA031213B0C7CE
:101BD300FA031213B08EFB031213B09DFC0312130E
:101BE300B0CFFD031213B0E6FB051213B03BFC05A7
:101BF3001213B0B5FC051213B0C8FC051213B0EFF5
:101C0300FC051213B082FD051213B05CFE0512131E
:101C1300B00D9D051213B0389D051213B0F79D0545
:101C23001213B0359E051213B0BB9E051213B055A7
:101C3300A2051213B068A4051213B0008003121397
:101C4300B03A80031213B03A82031213B0698403CB
:101C53001213B05787031213B0C987031213B0636B
:101C630088031213B07988031213B0308903121357
:101C7300B06C89031213B08389031213B0AF8903C5
:101C83001213B0B289031213B00B8A031213B05E9E
:101C93008A031213B0168B031213B0FF8B031213B4
:101CA300B0B58E031213B0CE90031213B00191039B
:101CB3001213B06191031213B0B391031213B03630
:101CC30092031213B0CA92031213B0D694031213E1
:101CD300B07596031213B0AF97031213B04A99036A
:101CE3001213B09699031213B078B9061213B07D8C
:101CF300B9061213B097B9061213B0D9B906121365
:101D0300B002BA061213B01CBA061213B035BA06E3
:101D13001213B059BA061213B0727B001213B0C675
:101D23007B001213B0967C001213B0C87C00121310
:101D3300B0F57C001213B0467D001213B0707D0025
:101D43001213B0947D001213B0D47D001213B05E51
:101D53007E001213B08F7E001213B0B67E001213F2
:101D6300B0FC7E001213B01A7F001213B03E7F0046
:101D73001213B05E7F001213B0947F001213B06F82
:101D8300F9011213B0A9F9011213B0E4FA01121305
:101D9300B08CD6051213B040D7051213B0ECFE0277
:101DA3001213B05DFF021213B0BFFF021213B04D46
:101DB300C6051213B05EC7051213B06FC805121320
:101DC300B0B0C9051213B006CA051213B044CA0550
:101DD3001213B052CA051213B0E3CB051213B08F1E
:101DE30091061213B0F191061213B0D59306121394
:101DF300B07DDB051213B0BEDB051213B0F4DB05B7
:101E03001213B01BDD051213B0B7DE051213B05762
:101E1300DF051213B069E0051213B09BE30512133B
:101E2300B01BE4051213B099AF061213B0D6AF0678
:101E33001213B00AB0061213B01DB0061213B09FEE
:101E430097061213B0B298061213B07499061213C0
:101E5300B0219A061213B04C9A061213B05FB20661
:101E63001213B071B2061213B084B3061213B08703
:101E7300B3061213B005B5061213B03BB506121321
:101E8300B055B5061213B097B5061213B0A7B50631
:101E93001213B041B6061213B08AAD051213B094F3
:101EA300AD051213B0CEAD051213B037AE05121344
:101EB300B054AE051213B0F6AE051213B0FFAE0563
:101EC3001213B044AF051213B06DAF051213B07AFD
:101ED300AF051213B0EBAF051213B076B0051213B2
:101EE300B0C4B0051213B002B1051213B067B10547
:101EF3001213B08AB1051213B001B2051213B05810
:101F0300B2051213B093B2051213B0C8B20512137F
:101F1300B0DAB2051213B0ECB2051213B00BB3056D
:101F23001213B014B3051213B0CFB3051213B01BC1
:101F3300B4051213B059B4051213B0B4B306121397
:101F4300B0F4B4061213B04DA2061213B083A20666
:101F53001213B0CBA2061213B024A4061213B05A64
:101F6300BD061213B035AF031213B059B0031213E9
:101F7300B093B0031213B03DB2031213B067B203B0
:101F83001213B0DCB4031213B01CB5031213B0B2B6
:101F9300B6031213B04FB7031213B0A1B703121352
:101FA300B044B8031213B07CB8031213B0BEB80325
:101FB3001213B02DBA031213B07BBB031213B0ACD0
:101FC300BD031213B0DABD031213B001BE03121323
:101FD300B00ABE031213B05ABE031213B0ECBE0311
:101FE3001213B01BC2031213B09EC2031213B0A08C
:101FF300BF061213B00080061213B0168006121328
:10200300B0BA80061213B0F980061213B016810617
:102013001213B04781061213B09481061213B0C78E
:1020230081061213B00282061213B0F7830612134D
:10203300B0D1BA051213B0FCBC051213B02EBE0505
:102043001213B046BE051213B048E5051213B08350
:10205300E6051213B015E8051213B063A6051213B3
:10206300B01FA7051213B08FA8051213B0CDA90591
:102073001213B06AAA051213B084AA061213B0FA97
:10208300AA061213B036D6031213B008D7031213DD
:10209300B052D7031213B007D8031213B066D80394
:1020A3001213B013DA031213B07FDA031213B0FB67
:1020B300DB031213B027DC031213B061DE03121328
:1020C300B08ADE031213B0EFDE031213B041DF0355
:1020D3001213B092E0031213B0E5E0031213B061E0
:1020E300E1031213B0EECB051213B015CC05121396
:1020F300B069CE051213B07CCE051213B0D1CE0554
:102103001213B003D0051213B084D0051213B078A4
:10211300B8061213B0D7B8061213B015B9061213C6
:10212300B056B9061213B0929C041213B0FB9C0470
:102133001213B0469D041213B0819D041213B0F61E
:102143009F041213B010A4041213B030A604121388
:10215300B03EA7041213B018A8041213B085B40537
:102163001213B0B8B4051213B0F1B5051213B0973A
:10217300B7051213B0B0B7051213B053B805121355
:10218300B0B6B8051213B0EDB9051213B073BA06A1
:102193001213B0BDBA061213B04BB6061213B05ADF
:1021A300B6061213B09BB6061213B0DCBF061213A9
:1021B300B040B6041213B0ABB6041213B0A9B704FF
:1021C3001213B02EB9041213B0B4B9041213B08DA4
:1021D300BA041213B06DBB041213B08CBC041213F7
:1021E300B0A5BD041213B04DC0041213B000800299
:1021F3001213B00C80021213B06E80021213B07867
:1022030080021213B00B81021213B0478102121322
:10221300B00782021213B01482021213B077820243
:102223001213B00C83021213B04283021213B0BF15
:1022330083021213B05F85021213B03387021213A5
:10224300B01488021213B05E89021213B0C08B025D
:102253001213B0258D021213B0BA8D021213B0ED12
:102263008E021213B0E18F021213B01A91021213ED
:10227300B0B095021213B09D96021213B0359702B7
:102283001213B05A97021213B08697021213B01E9C
:1022930098021213B03498021213B0569802121314
:1022A300B0BC98021213B0DB98021213B004990267
:1022B3001213B0249A021213B0FA9A021213B06FD7
:1022C3009C021213B0909C021213B0119D021213C0
:1022D300B0B79D021213B0FF9D021213B0709E029D
:1022E3001213B0FC9E021213B0609F021213B0C00F
:1022F3009F021213B06FA0021213B0DBA0021213DD
:10230300B00EA1021213B08CA1021213B0E8A20204
:102313001213B058A3021213B0EAA3021213B04D62
:10232300A5021213B0D4A5021213B039A6021213D8
:10233300B067A8021213B0F3A9021213B003AA02E2
:102343001213B037AA021213B0A5AA021213B0E0F7
:10235300AA021213B042AB021213B0D7AB0212138C
:10236300B0B2AD021213B07DAF021213B087B00248
:102373001213B084B4021213B051B5021213B06930
:10238300B6021213B013B8021213B0048406121368
:10239300B07484061213B08284061213B0908506BB
:1023A3001213B0B88E041213B06F8F041213B076E9
:1023B30090041213B0F490041213B0369204121363
:1023C300B05792041213B00F93041213B0BA9304CC
:1023D3001213B09A97041213B0B699041213B01DD6
:1023E3009B041213B07D8D051213B07AE50212130C
:1023F300B0D2E5021213B058E6021213B06AE70234
:102403001213B0B7E7021213B09DE8021213B0B46F
:10241300E8021213B006E9021213B03EE9021213E6
:10242300B051E9021213B0A7E9021213B000EA0295
:102433001213B018EA021213B0ADEC021213B04437
:10244300ED021213B06EED021213B0A6ED021213D9
:10245300B0CCEF021213B012F0021213B05CF00210
:102463001213B030F1021213B071F1021213B094CF
:10247300F1021213B0DBF1021213B0BBD204121338
:10248300B07CF2021213B000F3021213B05AF3023B
:102493001213B0A2F3021213B0ABF4021213B06B17
:1024A300F7021213B097F8021213B0D4F802121302
:1024B300B09BF9021213B0DBF9021213B0DEF9027A
:1024C3001213B0E8F9021213B0FBF9021213B08031
:1024D300FA021213B0B6FA021213B0E2FA0212139E
:1024E300B009FB021213B02DFB021213B0C4FB029E
:1024F3001213B0DDFB021213B010FC021213B03042
:10250300FC021213B06DFC021213B0A4FC021213EE
:10251300B0A3FD021213B0D6FE021213B04EBC06D6
:102523001213B05ABC061213B0A0BC061213B0A209
:10253300EE051213B0E0EE051213B06CEF051213A3
:10254300B077F0051213B093F2051213B0EBC20388
:102553001213B00EC3031213B0E5C3031213B02E4C
:10256300C4031213B086C4031213B0E0C4031213DE
:10257300B02CC5031213B0A2C5031213B030C603A7
:102583001213B0A8C6031213B0EBC6031213B0B9EB
:10259300CA031213B000CD031213B03ACD031213C2
:1025A300B0C4CD031213B043CE031213B010CF0344
:1025B3001213B03CD0031213B027D1031213B0FB94
:1025C300D1031213B07FD3031213B015D403121324
:1025D300B05EE7031213B0FEE7031213B068E8031B
:1025E3001213B00FE9031213B073E9031213B0A669
:1025F300EA031213B0CCEB031213B045EC0312132E
:10260300B01DEE031213B0BDEE031213B060EF035F
:102613001213B0BFEF031213B07AF0031213B040DA
:10262300F2031213B0E3F3031213B08FF403121384
:10263300B0A4F5031213B0AF9A031213B0279B0390
:102643001213B06F9B031213B0B39B031213B0FCAE
:102653009B031213B0469C031213B07B9C0312130B
:10266300B0F99C031213B0539D031213B0AC9E0335
:102673001213B0359F031213B0919F031213B0AB23
:102683009F031213B0D29F031213B02AA003121395
:10269300B094A1031213B0B3A1031213B0DBA203CE
:1026A3001213B058A3031213B0C5A3031213B02718
:1026B300A4031213B0D7A4031213B0A9A6031213D1
:1026C300B094A7031213B08EA8031213B094A903F6
:1026D3001213B0B0AA031213B0BEAA031213B09719
:1026E300AB031213B037AC031213B07BAC0312135A
:1026F300B090AC031213B0A1AD031213B044AE03F8
:102703001213B09CAE031213B0348B061213B0DC59
:102713008C061213B0998D061213B0EE8D061213A8
:10272300B06B8E061213B0868E061213B0CA8E06D5
:102733001213B0F08E061213B0168F061213B02EBA
:102743008F061213B0918F061213B0A68F061213C1
:10275300B0C890061213B0D190061213B0DA9006E7
:102763001213B0E390061213B0ED90061213B09853
:10277300F7051213B078FB051213B07DFB05121396
:10278300B07FFB051213B011A9061213B0CCBD061E
:102793001213B0D0FF011213B00DAE061213B082A4
:1027A300BF061213B080D5011213B0D7D50112138F
:1027B300B043D6011213B0CFD6011213B085D7019F
:1027C3001213B0CDD7011213B0E6D7011213B0091B
:1027D300D8011213B02BD8011213B069D801121308
:1027E300B0B8D8011213B0E3D8011213B041D90124
:1027F3001213B0E8D9011213B090DA011213B00C1E
:10280300DB011213B0D9DB011213B025DC01121363
:10281300B0ADDC011213B0E6DC011213B077DD01B9
:102823001213B088DD011213B0FADD011213B09355
:10283300DE011213B0FDDE011213B0EDDF0112133E
:10284300B012E0011213B00FE1011213B01CE10149
:102853001213B025E1011213B00EE3011213B02AD3
:10286300E4011213B0BBE4011213B02CE5011213FF
:10287300B006E7011213B0D1EA011213B0E5EA0181
:102883001213B0F5EA011213B0FFEA011213B008F4
:10289300EB011213B011EB011213B01BEB01121376
:1028A300B04AEB011213B078EB011213B083EB01C2
:1028B3001213B0A7EB011213B0CBEB011213B03D0F
:1028C300EC011213B086EC011213B0A2EC01121347
:1028D300B013ED011213B05FED011213B0A8ED01B7
:1028E3001213B0E6ED011213B067EE011213B0320A
:1028F300F0011213B0D1F0011213B099F1011213C8
:10290300B025F4011213B07AF4011213B0A2F4014A
:102913001213B0D5F5011213B01AF6011213B06FEA
:10292300F6011213B01DF7011213B0C2F70112130F
:10293300B0F7F7011213B097F8011213B013F901AE
:102943001213B05784011213B08984011213B0BD5E
:1029530084011213B07186011213B045870112135B
:10296300B0A487011213B0BA88011213B00689010B
:102973001213B0A38B011213B0188E011213B0649B
:102983008F011213B0FC8F011213B00890011213C0
:10299300B05190011213B08490011213B010910141
:1029A3001213B02292011213B06393011213B06297
:1029B30094011213B08C94011213B0F79401121303
:1029C300B05095011213B0C395011213B0F99701DA
:1029D3001213B07F99011213B06A9A011213B0B89F
:1029E3009B011213B0F09D011213B0E7A001121363
:1029F300B0F6A0011213B08AA1011213B035A201DF
:102A03001213B078A2011213B0C1A2011213B011B4
:102A1300A3011213B07EA3011213B0EAA301121390
:102A2300B006A4011213B035A4011213B074A401AB
:102A33001213B05CA5011213B00BA6011213B082DE
:102A4300A8011213B0B4A9011213B083AA0112137F
:102A5300B005AB011213B051AF011213B080AF0137
:102A63001213B0DBAF011213B00EB0011213B06931
:102A7300B0011213B085B0011213B0E6B001121306
:102A8300B036B1011213B0E5B1011213B0A8B2010F
:102A93001213B070B3011213B0BCB5011213B048D6
:102AA300B7011213B09FB8011213B0BBB9011213CF
:102AB300B0BEB9011213B0EDB9011213B0DCBB0102
:102AC3001213B0A5BC011213B0E6BC011213B03C43
:102AD300BE011213B0B2BE011213B0E5BE01121350
:102AE300B049BF011213B06AC1011213B0C9C101C9
:102AF3001213B09FC2011213B0B3C2011213B0C7B5
:102B0300C2011213B0F4C2011213B024C301121391
:102B1300B0C8C4011213B0C5C5011213B013C60166
:102B23001213B03AC6011213B015C7011213B0BB8A
:102B3300C7011213B041C9011213B088C90112139E
:102B4300B0F5C9011213B04ACB011213B0F3CB0194
:102B53001213B027CC011213B03FCC011213B0E211
:102B6300CC011213B05ECF011213B006D1011213C0
:102B7300B02AD1011213B048D1011213B014D201FB
:102B83001213B062D5011213B0283A001213B05ACF
:102B93003A001213B0DA3E001213B0293F001213A9
:102BA300B06F3F001213B01240001213B077400011
:102BB3001213B0BB40001213B02242001213B04EE6
:102BC30043001213B04B47001213B0CA470012134D
:102BD300B0F048001213B05349001213B09F4A00DB
:102BE3001213B0374D001213B0C44D001213B0CE00
:102BF3004D001213B0F64D001213B0BE4E00121367
:102C0300B0534F001213B07C4F001213B0A94F0002
:102C13001213B0FE51001213B0CB52001213B00ABC
:102C230053001213B08C53001213B0375400121315
:102C3300B06954001213B0B454001213B0ED540031
:102C43001213B03C55001213B09855001213B01A6A
:102C530056001213B07F56001213B0F7560012132A
:102C6300B0A058001213B09859001213B0D95A00EB
:102C73001213B02D5E001213B08960001213B0421C
:102C830061001213B08A61001213B06B6300121358
:102C9300B0A663001213B0AF63001213B0B86300A1
:102CA3001213B0C363001213B0E263001213B095A2
:102CB30064001213B0F264001213B0FC6400121328
:102CC300B00665001213B05265001213B09A650086
:102CD3001213B09E66001213B03767001213B0FED2
:102CE30067001213B02869001213B0536A0012135D
:102CF300B0496B001213B0616B001213B0956B00F7
:102D03001213B0B36B001213B0FB6B001213B03489
:102D13006C001213B0EB6C001213B0AC6D00121305
:102D2300B01F6E001213B09B6E001213B0376F000A
:102D33001213B05D70001213B01971001213B0B901
:102D430071001213B0A672001213B0FE72001213B8
:102D5300B0C473001213B0E773001213B0FC740015
:102D63001213B04775001213B0A375001213B00B02
:102D730076001213B02F76001213B0577600121399
:102D8300B09C76001213B0C076001213B0447700E3
:102D93001213B02D78001213B07278001213B09B87
:102DA30078001213B03979001213B0A4790012130A
:102DB300B0D079001213B0B17A001213B0A8E204B4
:102DC3001213B0E0E2041213B001E3041213B04390
:102DD300E3041213B0A7E3041213B0B1E304121314
:102DE300B0C1E3041213B0F8E3041213B0A1E70473
:102DF3001213B069E9041213B04DEB041213B0EFD0
:102E0300EB041213B079EC041213B056BB02121385
:102E1300B0BABB021213B018BC021213B063BC02E7
:102E23001213B07EBC021213B0A5BC021213B0C2BF
:102E3300BC021213B0CEBC021213B05FBE02121357
:102E4300B078BE021213B0F4BE021213B007BF0271
:102E53001213B017BF021213B0BBBF021213B02775
:102E6300C1021213B03AC2021213B0DAC202121331
:102E7300B0E4C2021213B063C3021213B074C302EC
:102E83001213B0B3C3021213B0E1C3021213B0AEF4
:102E9300C4021213B005C5021213B03EC5021213C9
:102EA300B094C5021213B0B2C5021213B000C60229
:102EB3001213B0CBC6021213B019C7021213B066B5
:102EC300C7021213B0E9C7021213B013C8021213D8
:102ED300B049C8021213B058C8021213B0B7C802DF
:102EE3001213B02FC9021213B070C9021213B0C06B
:102EF300C9021213B0EBC9021213B005CA021213AE
:102F0300B01FCA021213B0F4CA021213B0FECA02EF
:102F13001213B039CB021213B049CB021213B052C1
:102F2300CB021213B0A3CB021213B0B7CB0212130E
:102F3300B0D9CC021213B0EECC021213B081CD0281
:102F43001213B0F5CD021213B09ACE021213B0A52C
:102F5300CE021213B005D0021213B021D002121305
:102F6300B06DD0021213B0DBD0021213B00DD10238
:102F73001213B027D1021213B069D1021213B0BCDD
:102F8300D3021213B054D4021213B0CBD4021213CF
:102F9300B028D7021213B040D7021213B043D7029E
:102FA3001213B04FD7021213B063D7021213B06BD0
:102FB300D7021213B0A2D7021213B096D80212137B
:102FC300B020D9021213B0A2D9021213B022DA022E
:102FD3001213B0F9DA021213B01BDB021213B0B4EE
:102FE300DB021213B011DC021213B014DC02121351
:102FF300B083DC021213B0CFDD021213B0E2DE02A3
:103003001213B06DDF021213B080E0021213B04549
:10301300E1021213B076E1021213B09CE102121323
:10302300B0A5E1021213B0D4E1021213B084E2029C
:103033001213B034E3021213B0A7E3021213B04A1F
:10304300E4021213B0BDE4021213B0FCE402121343
:10305300B045E5021213B0608C051213B0158C0550
:103063001213B07F8B051213B0F089051213B0ED64
:103073008C041213B0728B041213B0708A041213EF
:10308300B03188041213B0DB87041213B01E860418
:103093001213B09583041213B00F83041213B0D923
:1030A300CF041213B005CF041213B0CB8104121353
:1030B300B08780041213B005CE041213B026CD04DA
:1030C3001213B00080041213B09095061213B06867
:1030D30095061213B0FB94061213B09B94061213B9
:1030E300B067B5041213B08DB4041213B0C3B304A4
:1030F3001213B032B2041213B0FBB1041213B0CDE9
:10310300B1041213B081B1041213B0EAB004121364
:10311300B05AB0041213B034B0041213B0E9AF04C0
:103123001213B0B3AF041213B036AF041213B0D1FD
:10313300AE041213B080AE041213B0A8AD04121380
:10314300B018AD041213B0CCAC041213B047AC04E6
:103153001213B002AC041213B0E6AB041213B0E2C4
:10316300C5051213B08EAA041213B043C50512137A
:10317300B081C1051213B0A6C0051213B023BF0658
:103183001213B008BF061213B04492051213B0E62F
:1031930090051213B07D90051213B060AA041213A8
:1031A300B02DAA041213B0B1A9041213B06FF50520
:1031B3001213B01490051213B060F4051213B09AF1
:1031C300F3051213B021F3051213B05DE2041213D9
:1031D300B0F48E051213B004E2041213B0FBF10233
:1031E3001213B0CFE1041213B09AE1041213B066C4
:1031F300E1041213B0F9E0041213B0E1E004121376
:10320300B0BCE0041213B095DD041213B068DB0404
:103213001213B06FD9041213B0FBD8041213B0AC5D
:10322300D8041213B066D8041213B008D8041213CA
:10323300B02386051213B0368E051213B09F850591
:103243001213B0B484051213B03C83051213B0EC0F
:1032530080051213B00080051213B0C4BE0600002F
:103263000080FBE473000000002001538400000190
:103273000020015384000002002001568400000353
:1032830000200154840000040042016D8000000509
:103293000042017E80000006004201A0800000077A
:1032A300002001AB80000000404201A0800000101C
:1032B3000042018F8000001100200101070000126D
:1032C3000010033A1506000000101100000800006A
:1032D30000203300000C005500393300000C001CA3
:1032E3000042330000120055002001000014000EBC
:1032F3000042220000050B000021010000050B0124
:103303000021010000050B000123010000050B0152
:103313000123010000050B020123010000050B033B
:103323000123010000050B040121010000050B0529
:103333000121010000050B060121010000050B0717
:103343000121010000050B080121010000050B0903
:103353000121010000050B0A0121010000050B0BEF
:103363000121010000050B0C0121010000050B0DDB
:103373000121010000050B0E0121010000050B0FC7
:103383000121010000050B100121010000050B11B3
:103393000121010000050B120121010000050B139F
:1033A3000121010000050B140121010000050B158B
:1033B3000121010000050B160121010000050B1777
:1033C3000121010000050B180121010000050B1963
:1033D3000121010000050B1A0121010000050B1B4F
:1033E3000121010000050B1C0120010000050B1D3C
:1033F30001280100008F0001003D1387000100AA8E
:1034030015350004006F1525000200731526000210
:103413000075152700020077152800010081152982
:1034230000010082158400040083158600010087D3
:10343300152A00010088152B00010089152C0001B5
:10344300008D152D00080020132E0001008E152F6E
:103453000001008F1530000100901531000100912B
:103463001532000100281333000100291334000131
:10347300009215360001002A133800010093153914
:103483000001008C1583000200A815630001003AB7
:1034930013640001008A15650001008B156D00019E
:1034A300003B1371000800181366000100A71543C1
:1034B3000001009815440002009915450001009B86
:1034C30015460002009C154700080032134800010E
:1034D300009E154B0001009F1504000100AB15A1D0
:1034E300000100AE1537000100AD1588000100ACE6
:1034F300153C0001002B133D000100941549000207
:1035030000A015670001003C134D000200A2154EF8
:10351300000100A4154F000200A5153E0001003173
:103523001351000100951552000100961553000137
:10353300009715540001002C130000000000000048
:1035430001363601010001020100010301000104FB
:1035530001060605020000070100340801000F09F7
:103563000401010D0100FF0E0800001702000019FD
:103573000100FF1A0100011B0100FE1C0100081DD0
:103583000200001F010001200100012102000023AD
:1035930001000F2402000026010001270100082872
:1035A3000200FF2A0100072B0102402C0100002D1D
:1035B3000100012E0100012F0100FF30010B1D311D
:1035C3000800003A0100083B01000F3C0100013DE7
:1035D3000100FF3E04000042040000460400004ACC
:1035E3000400004E04000052040000560400005A78
:1035F300040000000021010001002102000001235A
:1036030066000101236700020123680003012369A7
:10361300000401216A000501216B000601212C0130
:103623000701212D010801212E010901212F010A82
:10363300012130010B012131010C0121C8000D01D1
:1036430021C9000E0121CA000F0121CB0010012165
:10365300CC00110121CD00120121CE001301213232
:10366300011401213301150121CF00160121340179
:10367300170121D000180121D100190121D2001A0C
:103683000121D300010371030103010301030103BA
:1036930001032203020301031003000300030003D9
:1036A3000003000300030003420300032403060393
:1036B3000003000304031203250323032503230349
:1036C3000403040300030003000344030003000393
:1036D300230300036503210035038103000305036E
:1036E3000003000300030003250323030302710205
:1036F3003001600211027002010202020202800222
:10370300100261023A004100630273027202620214
:1037130043020002130238000002000204021202F4
:103723000002000200020002040204023700370014
:103733003C0244020002390000020002650200025A
:1037430035028102000205028202830200020300A5
:103753007100300160001100700031022003500439
:103763008000100061000000140063007300720009
:103773006200430000001300060000000000040084
:1037830012000000000000000000040004003700E5
:1037930037003C0244000000000000000000650008
:1037A30000003500810000000500000083000000D8
:1037B3000101710101010101110101013101010146
:1037C30001018001100161013B00140063017301D9
:1037D3007201620143010001130106013D0135003D
:1037E30004011201000100010001000104010401B0
:1037F300330133013C014401320136000001000171
:103803006501000135008101000105018201830189
:10381300000136000100060000000F000000000058
:10382300000000000000000003FFFF00000403FF8E
:10383300FF0000FFFF0FF4010005C4040320000193
:1038430000000B000000000000000003010F000057
:103853000000000000000000000000000000000065
:103863000000000000000000000000000000000055
:1038730001235B2307230B220D2361230D236D23D8
:1038830013230B220D23612319230B221F230B2246
:1038930025230B222B230B2231230B2237230B222D
:1038A3003D23732343230B2200000000000000008C
:1038B30000000000492385234F230B22492385233E
:1038C3004F230B223D23732355230B220A000000B1
:1038D30002000000040000000800000010000000C7
:1038E30020000000400000008000000000010000F4
:1038F30000020000000400000008000000100000A7
:1039030000200000004000000100E92502006B25B3
:10391300030071250400772505007D250600892510
:103923003000A1253300AD253400B3251100B9259E
:103933001400BF2515009B25FFFF000007ECFDFDCC
:10394300FDECDCDCCCBCACAC9C9C8C7C7C6C6C5C03
:103953005C5C4C4C3C3C2C2C1C1C03EAF5E5D5D59B
:10396300C5B5A595958585757565655555454535E4
:103973003525251515050AFB2B02CB2B05DD2B075A
:10398300D12B0CB32B0DBF2BFF000000160F000033
:103993000B150B020002220F3300000E0103050773
:1039A300090B0D0F00020406080A0C0D5A69674241
:1039B3006565416C6C69616E6365303900393D3F03
:1039C300373C3C362C442D00034A49434E181A25F4
:1039D30005020001191618161618230300303017B4
:1039E300181921301B1D1F300C0E020B040B0A0784
:1039F30008000F303016181920231A1C1E30020439
:103A030002010101010902E803000000BE040AE803
:103A1300030E001E10040903040A0C040408280CF6
:103A2300050832031E74F7120DB0E9901408F090E4
:103A330013BDE4F0121E5D901411E4F0A3F0901492
:103A430009F0A3F0122D5D121E6390134DE4F0A351
:103A5300F012275102559374EC120DB074D712145F
:103A6300C3EAFEEBFF54806068901408E0F9121E6D
:103A7300D58A088B09EA4509604F7C0080010CEC6C
:103A830075F003A4F8A9F0747928F582743939F52F
:103A930083E493F4602CE493F88508828B83E068D5
:103AA30070DCAA08EC75F003A4F8747A28F5827424
:103AB3003939F583E493C0E0740193F583D082121E
:103AC3003266AA08AB09121EC3EEFAEF6480023E07
:103AD300BCEF5420601E122C558A088B09EA450955
:103AE300600A122BBFAA08AB09121EC3EEFAEF64D9
:103AF30020023EBCEEA2E0501F9013C2E0640F70A0
:103B0300117900122B95E9600990156F12171F1296
:103B13002BADEE6401023E91EF5440604F90155F70
:103B2300E064067028740BF0901587E0F9750801BE
:103B3300750900750A00750B009013B0E078081240
:103B4300134AAA08AB09AC0AAD0B12284190132DF6
:103B53001211C07A007B40901408E0F9122013740C
:103B6300041213E0EEFAEF6440023EBCEE54207000
:103B730003023E957A207B00901408E0F912201F7F
:103B8300EA4B4C4D701A90140D121743E8494A4BF7
:103B9300700E750C01750D00750E00750F008061B8
:103BA300750C00750D00750E00750F0012202B8A21
:103BB300088B098C0A8D0B90140D121743E8494AA0
:103BC3004B602A90140D7808121369400E750CFF90
:103BD300750DFF750EFF750FFF801285080C8509A3
:103BE3000D8C0E8D0F90140D780C12147D740178CA
:103BF3000C121464E50C450D450E450F7003023D90
:103C0300C27C0079047A007B00122C318A088B096C
:103C1300023CE985188285198374FFF07401121739
:103C23005A74FFF0740212175A74FF124A82FAA3ED
:103C3300E0FB74031214A5126B2E12639F122C73F4
:103C4300E964016003023CCBE50812598B1251D29F
:103C53004480F8A3E0F9742412175AE8F0A3E91298
:103C6300630AA3A3A3E0C0E0742612175AD0E0129C
:103C73006920A3E054086016742412175AA3E04481
:103C830001123ED4C0E0742812175AD0E0F0127724
:103C9300193509126C2C60181277191262C0A3E04F
:103CA300C8127A30E0F8741212175AE8F0A3E4F05D
:103CB30090838B1211C074041214A5740712149DFF
:103CC30012287174041213E0850882850983A3A363
:103CD300A3A3A3A3A3A3A37406123ED4F9122C1384
:103CE300850A08850B09E50845097003023DC27C76
:103CF300007904AA08AB09122C318A0A8B0B8508B8
:103D030082850983A3A3A3A3E0F510A3E0F511E43F
:103D1300F512F513780C791012168F4029E5082453
:103D230004F8E43509F9850C10850D11888289831F
:103D3300C3E09510F0A3E0951112421DF8A3E0F93A
:103D4300E849709C800E850882850983A3A3A3A3F9
:103D5300E4F0A3F0850882850983A3A3A3A3A3A307
:103D6300A3A3A3A3E06401850882850983A3A3A376
:103D7300A3A3A3702BE054046003023C16850882BE
:103D8300850983A3A3A3A3A3A3A3A3A37406F07A80
:103D9300B7850882850983124009122BA7023CE3E9
:103DA300A3A3A3A3E06003023C16850882850983CD
:103DB300A3A3A3A3A3A3A3A3A37401F0023CE312AD
:103DC3002C017C0079017A007B00122C318B09EAEB
:103DD3004509600C7A207B00901408E0F9121EFF5D
:103DE300850C0A850D0B7C0079047A007B00122C6C
:103DF30031EA4B701580538A828B83A3A3A3A3124A
:103E030074C4E50898E5099940078A828B831255A3
:103E1300FE7C007904122C318B0DA90DEA4970D771
:103E2300C3E50A9508E50B95095013C3E508950A00
:103E3300F508E509950BF509E508450970167A209B
:103E43007B00901408E0F9121EFF90140D123ECD72
:103E5300A3F08037E50825E0F508E50933F509E423
:103E6300F50AF50B78081213FB7A207B00901408EF
:103E7300E0F912200D74041213E012202BEAF8EB80
:103E8300F9ECFAEDFB90140D12172BEE6420FAEF08
:103E93008027EF5402600A122D57EEFAEF64028076
:103EA30018EF540460161267E179019013BB126393
:103EB300A1122883EEFAEF6404FB80047A007B00EE
:103EC30074291213E07F0C0210B8E4F0A3F0A3F0FE
:103ED3002212630EA3E022C082C08374EA1214C3C9
:103EE3007C167D007900AA18AB19121EAB74081258
:103EF300175A7402F09013B1126B3F123F1D7409ED
:103F030012175A126A4D741312175AE412673112B8
:103F1300274574161213E0026381E8F0A3E9F090D9
:103F230013BB125E1E2274F7120DB074DA1214C39F
:103F3300EAFEEBFFEE4F602DAC18AD19122C737433
:103F43000612175AE0601E741712175AE0FD740127
:103F530012175AE0FCEEFAEFFB7900122B6BE960C3
:103F63000479A480027900742602559074F7120D27
:103F7300B0EAFEEBFF8E828F83A3A3A3A3A3A3E0E8
:103F8300544060171274881263A1122D03E960066E
:103F93007AFF7BFF801512748880039013B112633C
:103FA300A174FE6A700374FF6B6047127488127009
:103FB30057122D03E98E828F83600E125AC712594E
:103FC3008B38F583E4F0A38003127A5BF07C9B7D4E
:103FD3002B8E828F831263A112274BE9F50870158C
:103FE300EE4F60097901EEFAEFFB122C0DA90802DE
:103FF30055937508CDAA08124005122BA7E960E076
:1040030080EB8E828F83125ACB127A13E0F92274DB
:10401300F6120DB0E9FEEAFF7A0F7B00121EBDEA2D
:104023004B601F8A828B83740CF0EEA3A3F0EF8A9C
:10403300828B83125370901408E0F9121EC9790021
:10404300802FEEF9122C378A088B09A808A909E8F2
:1040530049601C88828983A3A3A3A3A3A3A3A3A3C7
:104063007406127721E0F9122913EEF9122C137951
:10407300100266EF74F4120DB08A088B098C0A8D56
:104083000B9013C2E0640F702CEA4509450A450BF7
:1040930060239013BDE064086005E0640470167843
:1040A300081213FB7A017B00901408E0F912200D2B
:1040B30074041213E002434974F4120DB074FC1239
:1040C30014C3EAFEEBFF8E828F83A3A3E0F9122CC5
:1040D300378A088B09EA450970030241F88E828FFB
:1040E30083A3A882A983E0C0E0EA240B1262BDD0B7
:1040F300E012421D64F160288E828F83A3E064CDB9
:10410300601E8E828F83A3E0641A60148E828F8375
:10411300A3E064E9600A8E828F83A3E064E17036D2
:104123007900122C0DE9602EE5082404F50AE43524
:1041330009F50B850882850983124209A3E0F985F5
:104143000A82850B831263A1121E6F850A82850B77
:1041530083127057806E8E828F83A3E0C0E0740257
:1041630012175AD0E0124D2B127A9D124D1DC0E04A
:10417300740312175AD0E0F0E508240C1251CFAAA9
:1041830018AB19700512286B8003122CEB74021202
:10419300175AE064E9702D850882850983124A97CE
:1041A300750A01780A121407750AE9780A121407C6
:1041B3001251C5124D0D1255D21263A1122CA974BE
:1041C300021213E0850882850983A3A3A3A3A3A3F3
:1041D300A3A3A3E064027012850882850983A3A3C5
:1041E300A3A3A3A3A3A3A37406F08E828F83A3A385
:1041F300E0F9122C13122C01901575124739122B6A
:10420300AD7404024346A3A3A3A3A3A312421322A0
:10421300E0FCA3E0FD8E828F8322127731E02274CB
:10422300F4120DB0EAFEEBFF7508008E828F83A3B4
:10423300A3A3A3A3E060487508088E828F83A3A37A
:10424300A3A3A3A3A3A3A31263A179FF1229FD8BA5
:104253000BEA450B601075082C8E828F83A3A3A3F2
:10426300A3A3E0D2E0F08E828F83A3A3A3A3A3E052
:10427300540364016003024342430811024342EEC4
:1042830024181258876038EE241A1258876003F4F2
:1042930070131273AE7003A3E069600302434275A7
:1042A3000822024342EE241B127296EE241A12587D
:1042B30087FAEE2419125887F91229010243428E14
:1042C300828F83A3A3A3A3A3A3A3A3A31263A11274
:1042D3002D03E9640270037508011273AE7003A322
:1042E300E0697006E508D2E1F508E50860158E82FD
:1042F3008F83A3A3E07006E508D2E58004E508D226
:10430300E6F5088E828F83A3A3A3A3A3A3A3A3A3EA
:104313001263A1122D03E964017006E508D2E0F5EA
:10432300088E828F83A3A3E06015EE241D1256E549
:10433300F9122CF1E964016006E508C2E0F508A969
:104343000880031213E07F040210B874F0120DB05A
:1043530074D71214C3EAFEEBFF8E828F83A3A3A349
:10436300A3E06011901573126C2E600990157312FF
:104373004739122BAD74031214A58E828F83A3A326
:10438300A3A3124CFE1263A1122C73E9700302441F
:10439300E77801740512175AE0C3940240027800CB
:1043A300740712175AE0C3940240027800740C1287
:1043B300175AE064F87003A3E0F470030244E7744F
:1043C3000C12175AE064F97003A3E0F4700302447B
:1043D300E7740C12175AE064FA7003A3E0F4700355
:1043E3000244E7740C12175AE064FB7003A3E0F471
:1043F30070030244E7740612175AE0F99013ABE016
:104403006960030244E7E8A2E040030244E774273B
:1044130012175AE060030244E7EE2413125E147489
:104423002212175A126908241C125E1474101217F0
:104433005A126A4D740912175AE0601F741A121740
:104443005AE0FD740412175AE0FC8E828F83A3A3F3
:104453001263A17901122B6BE9703D740312149D51
:10446300122BB9E9F508740912175AE0702E90134C
:10447300A5E0602874225508642260207442550820
:1044830064427014742012175A124745600E742048
:1044930012175A12472260047ACF804AE9A2E650E3
:1044A3004D742012175A1256EB24FD600F14600C42
:1044B30024FD600824FD600424FE70287420121774
:1044C3005A12471B700E742012175A126699A3E0F2
:1044D300640D601A740312149D122D1BE96401709C
:1044E3000D02470E7AD37B0012253B02470EEE24C2
:1044F3002DF582E43FF583124A757003A3E06970DA
:104503002275090078091214077809121407EE249A
:104513002F125887F912472912639B122CA9740290
:104523001213E0740912175AE070030245CA1247C6
:104533002912639B122D818A0A8B0BEA450B7003A8
:10454300024667740412175AE0F88E828F83A3A37E
:10455300E028F8A3E03400F9E8240D124713F88AA1
:10456300828B83A3A3A3E068600EE88A828B83A374
:10457300A3A3125369123ECE7904E912175A124CBF
:10458300F5E02AF8A3E034008882F583A3AA82AB7E
:1045930083121EB18A0C8B0D8C0E8D0F850A8285BA
:1045A3000B83A3A3A3A3780C121369400302470E42
:1045B3009083EB780C121590850A82850B83A3A355
:1045C300A3A3780C1216DC9013BDE064046008E02A
:1045D3006409600302470EE508A2E540030246A111
:1045E300EE242F125887851882851983F0EE243024
:1045F300125887C0E0740112175AD0E0F0EE24314C
:10460300125887C0E0740212175AD0E0F0741412E3
:10461300175AE06401702C740E12175A1251DF24DA
:1046230013125887687003A3E0697017740C12178C
:104633005A1263A1122D03E964027007741412174E
:104643005AE4F0EE2425F582E43FF5831211C07499
:10465300041214A5740712149D1228717404121302
:10466300E002470E901402E0640160030245CA743D
:104673002012175A1247457009E508A2E6500302B3
:1046830045CA741012175AE0F47003A3E0F4607B78
:10469300EEFCEFFD740312149D122BC5806DA2E690
:1046A3005069742012175A126B157016741A121768
:1046B3005AE064027055740312149D7900122CE5BC
:1046C3008049742012175A1247227014741A121751
:1046D3005AE064047035740312149D122CD9802B94
:1046E300742012175A12471B700C790074031214AA
:1046F3009D122D278015742012175A126699E064B3
:104703000C7008740312149D122D3F74290251F684
:10471300F582E439F583E022127492E064032212F5
:104723007492E0640722EE242BF582E43FF58312B2
:1047330072A0EE241322E0F508A3E0AA08FBE4FC30
:10474300FD221255EE64062274F4120DB0EAFEEB5C
:10475300FF8C088D09901328E0600F1273AE70036D
:10476300A3E06970051228EF805A79008E828F8347
:10477300A3A3A3A3A3A3A3A3A31263A112291F8A81
:10478300828B83E58245836033A3A3A3A3A3A3E022
:1047930054186028E508241C1262BD1211C4E508F0
:1047A30024131262BD1211C4EE2418125887F91291
:1047B300638812293174041213E0800879001263AC
:1047C300881228F502434974F7120DB074F71214D6
:1047D300C3EAFEEBFF9013BDE06403600DE06401E8
:1047E3006008E0640960030248E28E828F83A3E0DD
:1047F30060030248A87C007D007A027B00121E69D8
:104803001274CE8A828B83125E1A9013AE126A4D93
:1048130079531227339013BDE0640960099013BBE9
:104823001263A1122D7B8518828519837401126787
:104833003179421227339013BD7404F074011214BA
:104843009D794A12272D74011214A57AB37B131292
:10485300212190155FE0640B70057406F0800B79DD
:10486300009013BB1263A11228839013AE12729CA3
:104873007A037B00121E699013B112729C7A047B37
:1048830000121E699013A8E0A2E35004D2F0800244
:10489300C2F0126727795212273390156F12171F30
:1048A300122BAD8037FC7D007A037B10121E6990BA
:1048B300155FE0640B7003740AF0901595E4F0FA49
:1048C3007B40901408E0F91220198E828F831248DE
:1048D300E91263A11228839013BDE4F0122BEF7445
:1048E30009025590E0F8A3E0F99013BB22C082C0FF
:1048F3008390134D126C2E701F9013BDE01460094A
:1049030024FC600A14600C800F90135780349013BA
:1049130053802F901355802AE849600890134E1254
:104923004D07700C8A828B83A3E0F9122877801DD0
:1049330090134D126B1B64027005122D4B800E9069
:10494300142C126C2E600612669A12326602638170
:1049530074F4120DB074FE1214C38A088B097A0022
:104963007B04901408E0F9122019AA18AB197950A6
:1049730012272D7A0F7B00121EBD8A0A8B0BAE0AFB
:10498300AF0BEE4F6020850882850983A3E0701684
:104993009013BBE0F47003A3E0F4603B124A6F7022
:1049A30003A3E0696031850882850983A374EA1251
:1049B3004D231227337AB17B13794B1227337ABBFA
:1049C3007B1379501227337AB07B1379E1122733A3
:1049D300EE4F7003024A638E828F837402F090134A
:1049E300BBE0F47003A3E0F4600A124A6F7003A300
:1049F300E069704F8518828519831248E7E8F0A3B0
:104A0300E9124D2312272D9013AE1251E4126A4D71
:104A13007AB17B13794B12272D7AB07B1379E1128C
:104A2300272D750A00780A121407780A12140790C2
:104A330015551248EA124F441263A1122CA97402AD
:104A43001213E0850882850983124A68A3F0901344
:104A5300BD7403F0EEFAEFFB901408E0F9121EC9DF
:104A63007402024346A3E08E828F832285188285D7
:104A73001983125E1E9013BBE06822E8F0A3E912CB
:104A83004A8622F0850882850983E022F582E43B89
:104A9300F583E022125E1EE8FAE9FB2274F5120D9B
:104AA300B074D11214C38A088B098A828B8312567D
:104AB300DD741C1214A58A828B83A3A3A3A3A3A3CF
:104AC300A3A3124D0D1263A1122BF5741C12175AD6
:104AD300E0702C850882850983A3A3A3A3A3A3A3C2
:104AE300A3E0C3940B40188E828F83A3A3A3A3A335
:104AF300A3A3A3E064027007126A39E0F46003021F
:104B03004CF09013BDE064027003024BD7E06406DF
:104B13007003024BD790134D126C2E6008124D0791
:104B23007003024C079013BDE064086008E064045E
:104B33006003024CF0741E12175A124CF5A3A3A380
:104B4300A31256DD90134DE0F8496007126B216400
:104B53000260779013BBE06E7003A3E06F60030203
:104B63004CF074016A6016742312175AAC82AD8339
:104B73007ACF7B1312211BE96003024CF07A007B8E
:104B830002901408E0F912201FEA4B4C4D60030217
:104B93004CF09013BE1217438518828519831217A0
:104BA3002B9013C4E0C0E0740412175AD0E0F074E1
:104BB3000512175A7401F0740612175A7402126719
:104BC30031122835E96003024CEDEEFAEFFB122DAA
:104BD30045024CF090134D126C2E70287508007826
:104BE300081214077808121407EE2410F582E43F24
:104BF300F583124CFEA31242091263A1122CA9746D
:104C0300021213E08E828F83125E1A740712175AF0
:104C1300E8F0A3E91251EA125E1A740912175A1244
:104C23006908125DB3C0E0740B12175AD0E0124D3D
:104C33001DF508A3E0F509740F78081216CD740C5E
:104C430012175AE508F0742012175AE0C0E0740DE9
:104C530012175AD0E0F0742212175AE0C0E0740E13
:104C630012175AD0E0F0741D12175AE0C0E0741006
:104C730012175AD0E0F0741E12175AE0C0E0740FF6
:104C830012175AD0E0F0EE2410125887C0E07411C6
:104C930012175AD0E0F0742112175AE0C0E07412D0
:104CA30012175AD0E0F0742E12175AE0C0E07413B2
:104CB30012175AD0E0F0742312175AA982AA8389D3
:104CC300088A09750A0078081213FF7C087D0074AE
:104CD3001712175AAA82AB83121E9F74031213E092
:104CE300740712149D12287D800312283B742F022F
:104CF30056EFE0FA8E828F83A3A322E0F98E828F90
:104D030083A3A322126B22640122E0F98A828B839C
:104D1300A3A3A3A3A3A3A3A3A322F0126A3DE02208
:104D2300F07AAE7B13795322124D2F22F08518822D
:104D33008519832274F2120DB074F81214C3EAFEBB
:104D4300EBFF8C0A8D0B890D90826DAC18AD197435
:104D530008121309750C00EEFCEFFDAA18AB19122B
:104D6300211BE97003750C01901409801AEEFCEF06
:104D7300FDE508240BFAE43509FB12211BE9702336
:104D8300E50824141262BD124DBC6024E50CA2E0B8
:104D930040DB850882850983E0650A7004A3E0652A
:104DA3000B70DD850882850983A3A3E0650D70D0B0
:104DB300AA08AB097408025384125606E50845098C
:104DC30022C082C08390140902637E74F7120DB06F
:104DD30090140912773F800C126E8C1256E0121F4A
:104DE30059EEFAEFFBEA4B70EF901409E4F0A3F0ED
:104DF30002559374F1120DB0EAFEEBFF890A8C0899
:104E03008D098E828F83E08C828D83125DE2AE8268
:104E1300AF83E012612712632EC4126127124EB5CD
:104E2300E012612E12632CA2E2E4338C828D831292
:104E3300632B131313541F12612712632AA2E7E48F
:104E4300338C828D83A3A3A3A3124EB58E0C8F0D37
:104E5300750E00780C1213FF7C087D00E50824070B
:104E6300FAE43509FB121E9F74031213E0EE2408C3
:104E7300FE50010F8E0C8F0D780C1213FF7C037DF7
:104E830000E508240FFAE43509FB121E9F74031290
:104E930013E0E50AC3940F40118E828F83A3A3A36B
:104EA300E0C0E01262B9D0E080041262B9E4F0021B
:104EB30074C9A3A3125DE60EAF832274F5120DB07D
:104EC3008A088B098A828B83A3AE82AF83E0F912AF
:104ED300289B8E828F83E064EB602485088285099A
:104EE30083A3E064E16018850882850983A3E064F5
:104EF300F1600C850882850983A3E0641A70098533
:104F03000882850983A3E4F090156F12171F122BF3
:104F1300AD750A01780A121407850882850983A3EF
:104F2300E0F508780812140779009013BB124F4478
:104F33001263A1122CA974021213E0122C0102565F
:104F4300F21272A09013B122EAF0A3EBF002638194
:104F530074F6120DB090140CE0701B7C0079017A8A
:104F6300007B00122C31EA4B600C8A828B83126C1B
:104F73002E6003122BA10266EFC082C08379041254
:104F83002C2BE9F8903A23E493C398401079FF124D
:104F93002C2BE9F8903A22E493C3985004790180CA
:104FA30002790002638174F0120DB08A088B0989BB
:104FB3000B750C008A828B83A3A3A3A3A3A3A3A330
:104FC300E0F9122C378A0E8B0FAE0EAF0F750A0164
:104FD300EE4F60030250A3850882850983A3A3A330
:104FE300A3A3A312729C850882850983A3A3A3A309
:104FF300A3A3A3A3E0F98508828509831263A11201
:105003002C1F8A0C8B0DAE0CAF0DEE4F70030251AB
:10501300BE8E828F83A3A3A3A3E4F0A3F0E50824A9
:105023000CFAE43509FB8A828B83E0C0E01251C598
:10503300D0E0F0E508240D1251D8240D126A47126E
:105043002D09EE240F127051E50824111251D824B2
:1050530011126A47E50824131251CFC0E01268F118
:10506300D0E0F0750C01EE2406125DA7547FF0A387
:10507300E054FC12421D5404600302511890158140
:10508300E0F508750900740778081216028E828FFE
:1050930083A3A3A3A3A3A3E04508F0A3E04509F0DA
:1050A3008E828F83A3A31255FE740778081216CD40
:1050B300E5085407FCE50B606C8E828F83A3A3A3E2
:1050C300A3A3A3A3A3A3740212632F1254A9600B77
:1050D3009013A91251E4A3A3126A4DEC7003025179
:1050E3008CEE2406127A1C547FF508A3E054FCF5D9
:1050F30009EC24FFF50EE434FFF50F7407780E1264
:105103001602E508450EF8E509450FF98A828B83F7
:10511300126A4D80748E828F83A3A3A3A3A3A3E0FB
:1051230044800250A2EC7005750A00805C8E828F69
:1051330083A3A3A3A3A3A3E05420600C121EB7EA86
:10514300547F7900245F80198E828F83A3A3A3A346
:10515300A3A3E05410601A121EB7EA540F79002477
:105163000A5001098E828F83A3A3A3A3F0A3E9802E
:105173000D8E828F83A3A3A3A37401F0A3E4125122
:10518300EA740412542C121EFFE50CA2E0502F8E79
:10519300828F83A3A3A3A3126E12E0F9EEFAEFFBAF
:1051A300122C25E96018126C256009EE240F126396
:1051B3009B121F59EEFAEFFB121F59750A00A90A39
:1051C3008034EE240CF582E43FF58322F582E43546
:1051D30009F583E022F582E43509F583125E1EEEBC
:1051E300221274F2A3A3221251EE2212606AA3A325
:1051F300A3A3221213E07F080210B874F4120DB0B7
:1052030074F71214C37E00122C37EA4B7003025258
:10521300C48A828B83A3A3A3A3A3A3A3A3A3E064AE
:105223000660030252C48A828B83A3A3A3A3A3A30E
:10523300A3E0FF8A828B83127A40E0C0E0740812F5
:10524300175AD0E01255E5F8A3E0F98518828519BD
:1052530083126A4D122C49EF5408606385188285C6
:10526300198312729C7A007B00122C198B0BEA456E
:105273000B704C127A8F12275D7C007D007A007BC5
:105283000080288E828F831256EBF47003A3E0F420
:10529300602D9013BB12420F1263A1122757E964CA
:1052A3001A601C7C007D00EEFAEFFB122C198A0AAF
:1052B3008B0BAE0AAF0BEE4F70C979001227637EDA
:1052C30001EEF97409024346C082C083EA4B7005BC
:1052D30090141180068A828B83A3A31254E1602069
:1052E3008A828B83A3A3A3A3A3A3A3E0540860E5AB
:1052F300EC4D60101254E87003A3E06D70D7800486
:105303007A007B0002638174F2120DB0EAFEEBFFB8
:10531300890A8C088D097A147B00121F53EA4B60AB
:105323003A8A828B83A3A3A3A3A3A3A3A3A3E41275
:1053330055DAA3E50A127499A3127A9B12536912E0
:1053430055F81253708A828B831274B6EA12771B54
:105353003BF583E4F0125360F0A3F08027A3F08AB7
:10536300828B83A3A3221274ADE4F0A322A3F012D1
:10537300537B3BF583E4F022EA12671622A90A74F1
:10538300031213E07F060210B874F4120DB0EAFEA4
:10539300EBFF89088C0A8D0BEE4F700302542774C0
:1053A30001650870127901122C2BE9F8903A24E474
:1053B30093C39850228016740465087014790412FC
:1053C3002C2BE9F8903A23E493C398500A7911807F
:1053D3005574026508704D8E828F83A3A3A3A3A384
:1053E300A3A3A3A3E508125DE2A31270F0E4F0A364
:1053F300F0901411126C2E601A8003E0F8A3E0F908
:1054030088828983A3A31254E188828983A3A3702A
:10541300EA8003901411EEF0A3EF12542C121EFF36
:105423007900800279C1024349F07A207B0090140D
:1054330008E0F922C082C083E9F879009014118052
:105443001D8A828B83A3A3A3A3A3A3A3A3A3E0681F
:10545300600574FF687001098A828B83A3A31254C9
:10546300E170DE02638174F7120DB0EA4B700590B0
:10547300141180068A828B83A3A31254E160208ACD
:10548300828B83A3A3A3A3A3A3A3A3A3E06970E431
:10549300EC60108A828B83E01254A970D780047A5F
:1054A300007B00025593F8A3E0C8127A67E0540426
:1054B30022C082C08390141180068A828B83A3A3A7
:1054C3001254E160128A828B83A3A3A3A3A3A3A391
:1054D300A3E06970E580047A007B000263811277A0
:1054E3003FFBEA4B221255EA6C2274F2120DB08A8A
:1054F3000A8B0B8C0C8D0D750800750900EA450BA2
:10550300603090141180068E828F83A3A31256E01D
:10551300EE4F601EAC0CAD0DEEFAEFFB850A8285F3
:105523000B83123266E9640170DDEEF8EFF9880847
:105533008909AA08AB0902538774F7120DB09014B6
:1055430011125E1A7C007D00800DE8FCE9FD888263
:105553008983A3A3125E1AE8496030EA687002EBFC
:105563006970E79014111263A1E86A7002E96B880D
:10557300828983A3A37008125E1A90141180091202
:105583005E1A8C828D83A3A3126A4D80031213E0EB
:105593007F010210B874F7120DB0EAFEEBFFEE4F75
:1055A300602B122C4312560E12639F121F598E82C8
:1055B3008F831263A1121F59126C256009EE240F09
:1055C30012639B121F59EEFAEFFB121F5980C1128F
:1055D30072A08A828B83221255DE221274B1A3A396
:1055E300A322F01255EA228A828B83E0F8A3E0F526
:1055F300838882E0221255DEA3A322A3A3A3A312CE
:10560300560622E0F508A3E0F509228E828F831265
:105613005ACB125AC13822C082C083EAFCEBFDEC9C
:105623004D6017EC24FBF582ED34FF126C2C7007F0
:10563300125674E0F46007121EC37905803090148B
:1056430008E0C0E0125674D0E0F0903A1CE493F9FD
:105653007A137B14121EF9E9640170107A007B201F
:10566300901408E0F9121EFF7900800279040263A6
:1056730081EC24FFF582ED34FFF5832274F4120DDF
:10568300B0A2AFE433F508C2AF9014131256E0EEA4
:105693004F603AEE24FBF582EF34FF126C2C7A0054
:1056A3007B209014086007E0F9121EFF8005E0F9E3
:1056B300121F05E4F50AF50B780A121403EEFCEF4A
:1056C300FD7A137B14121EF374021213E0E508A291
:1056D300E092AFEEFAEFFB024349A3A3A3127108D2
:1056E300FF22F582E43FF5831255EE221213E07F89
:1056F300030210B874F2120DB074FA1214C3EAFE66
:10570300EBFF750AFE750BFF122C07E96005791193
:1057130002587FEE2415125887603590159FE0C418
:105723003354E0F8E0333354FC48C0E0126030D027
:10573300E0127A70FAA3E0FB79FF1229FD8B09EAE4
:105743004509600C750AFF1268F51267DBD2E0F0B9
:105753008E828F83A3A31263A1122D03E96006EE49
:1057630024121266FEEE2413125887700D903A2706
:10577300E493C0E01268F1D0E0F08E828F83E0A260
:10578300E7500454038019EE2414125887701290C2
:10579300139AE0C0E0125D9DD0E0F090139AE0040C
:1057A300F01258846401701690158AE0600D90130E
:1057B300A5E0700A8E828F83E070031266FB8E82EF
:1057C3008F83E064017011EE240B1256E5640270BE
:1057D3000712589BE04440F0AC18AD19EEFAEFFB0A
:1057E300122C6D8A088B0974FE650A700374FFF42A
:1057F300700D8E828F83A3A3E0F50AA3E0F50BEA75
:10580300450960748E828F83E0C0E0740112175AD9
:10581300D0E0F0740412175A1274B6EE241E125E0E
:1058230014740212175A126A4D7401121495880CDB
:10583300890D780C121403EE242012588F121407CA
:1058430012589B1211C4EE240E12588F1214079093
:1058530013AE1211C4740812175AE0F9AC0AAD0B57
:10586300122C6774081213E0E9FE74106E700BAA11
:1058730008AB09121F5980027E10EEF97406025319
:1058830084EE2411F582E43FF583E022F582E43FC0
:10589300F583E0F50C780C22EE1268FD22C082C07D
:1058A3008374D71214C39081C974031214A5742688
:1058B3001213098A828B83A3A3A3A3125E1A740E05
:1058C30012175AE8F0A3E9125361125E1A740C120C
:1058D300175A12599112598B124A92C0E0741A1234
:1058E300175AD0E0F0126E96125E18742012175AEF
:1058F3001259912415124A8FC0E0740812175AD016
:10590300E0F0EA241CF582E43B125E1874121217CD
:105913005A1259912411124A8FC0E0740912175A6E
:10592300D0E0F0EA2412124A8FC0E0740712175A2B
:10593300D0E0F0EA241EF582E43B125E18742412D0
:10594300175A1259912420124A8FC0E07426121755
:105953005AD0E0124D2B74FFF0740112175A74FFE2
:10596300F0740212175A74FFF090838B1211C074F3
:10597300041214A5740712149D12287174041213CF
:10598300E079007429023F17240DF582E422E8F040
:10599300A3E9F0EA2274F4120DB074EC1214C3EA12
:1059A300FEEBFF8C0A8D0B89097508107A217B00A9
:1059B300121F5385188285198312705785188285A3
:1059C3001983126C2E7003025ABA7C217D00790070
:1059D300851882851983E0FA121EAB9013BB1263FC
:1059E300A1851882851983125AC72409F582E438E0
:1059F300127055742012175A125E1A741112175A24
:105A0300E8F0A3E9125AD1127A2A125AD1127A472C
:105A13007402125E24F8126699E50AF0A3E50B12EC
:105A23005AD1127A37E509F0742212175AE0F88531
:105A33001882851983E0F9A3E0C9240CF582E439BF
:105A4300F583E8125E24F9A3E0C9125AC139F5833C
:105A53001274B6742312175A1263A1740612175ADA
:105A6300127057740812175AE8F0742612175A1254
:105A7300748CC082C083740C12175AAC82AD83D06D
:105A830083D0827405121309742512175AE0C0E0FB
:105A9300741312175AD0E0F07900AA18AB19122C1C
:105AA3000DE964017005750800800C85188285195D
:105AB300831263A1121F59A9087414024346241FB9
:105AC300F582E422125ACB22E0F8A3E0C822125E48
:105AD30028F8A3E0C82274EE120DB0EAFEEBFF8CA7
:105AE300088D098E828F83A3740812671CE06008F7
:105AF3008E828F83A37410F0EE24171258876009E7
:105B03008E828F83A3E02408F0EE24151258876059
